{
  "contractName": "DashboardMinter",
  "abi": [
    {
      "inputs": [],
      "stateMutability": "nonpayable",
      "type": "constructor"
    },
    {
      "anonymous": false,
      "inputs": [
        {
          "indexed": true,
          "internalType": "address",
          "name": "owner",
          "type": "address"
        },
        {
          "indexed": true,
          "internalType": "address",
          "name": "approved",
          "type": "address"
        },
        {
          "indexed": true,
          "internalType": "uint256",
          "name": "tokenId",
          "type": "uint256"
        }
      ],
      "name": "Approval",
      "type": "event"
    },
    {
      "anonymous": false,
      "inputs": [
        {
          "indexed": true,
          "internalType": "address",
          "name": "owner",
          "type": "address"
        },
        {
          "indexed": true,
          "internalType": "address",
          "name": "operator",
          "type": "address"
        },
        {
          "indexed": false,
          "internalType": "bool",
          "name": "approved",
          "type": "bool"
        }
      ],
      "name": "ApprovalForAll",
      "type": "event"
    },
    {
      "anonymous": false,
      "inputs": [
        {
          "indexed": true,
          "internalType": "address",
          "name": "previousOwner",
          "type": "address"
        },
        {
          "indexed": true,
          "internalType": "address",
          "name": "newOwner",
          "type": "address"
        }
      ],
      "name": "OwnershipTransferred",
      "type": "event"
    },
    {
      "anonymous": false,
      "inputs": [
        {
          "indexed": true,
          "internalType": "address",
          "name": "from",
          "type": "address"
        },
        {
          "indexed": true,
          "internalType": "address",
          "name": "to",
          "type": "address"
        },
        {
          "indexed": true,
          "internalType": "uint256",
          "name": "tokenId",
          "type": "uint256"
        }
      ],
      "name": "Transfer",
      "type": "event"
    },
    {
      "inputs": [
        {
          "internalType": "address",
          "name": "to",
          "type": "address"
        },
        {
          "internalType": "uint256",
          "name": "tokenId",
          "type": "uint256"
        }
      ],
      "name": "approve",
      "outputs": [],
      "stateMutability": "nonpayable",
      "type": "function"
    },
    {
      "inputs": [
        {
          "internalType": "address",
          "name": "owner",
          "type": "address"
        }
      ],
      "name": "balanceOf",
      "outputs": [
        {
          "internalType": "uint256",
          "name": "",
          "type": "uint256"
        }
      ],
      "stateMutability": "view",
      "type": "function"
    },
    {
      "inputs": [
        {
          "internalType": "uint256",
          "name": "tokenId",
          "type": "uint256"
        }
      ],
      "name": "getApproved",
      "outputs": [
        {
          "internalType": "address",
          "name": "",
          "type": "address"
        }
      ],
      "stateMutability": "view",
      "type": "function"
    },
    {
      "inputs": [
        {
          "internalType": "address",
          "name": "owner",
          "type": "address"
        },
        {
          "internalType": "address",
          "name": "operator",
          "type": "address"
        }
      ],
      "name": "isApprovedForAll",
      "outputs": [
        {
          "internalType": "bool",
          "name": "",
          "type": "bool"
        }
      ],
      "stateMutability": "view",
      "type": "function"
    },
    {
      "inputs": [],
      "name": "name",
      "outputs": [
        {
          "internalType": "string",
          "name": "",
          "type": "string"
        }
      ],
      "stateMutability": "view",
      "type": "function"
    },
    {
      "inputs": [],
      "name": "owner",
      "outputs": [
        {
          "internalType": "address",
          "name": "",
          "type": "address"
        }
      ],
      "stateMutability": "view",
      "type": "function"
    },
    {
      "inputs": [
        {
          "internalType": "uint256",
          "name": "tokenId",
          "type": "uint256"
        }
      ],
      "name": "ownerOf",
      "outputs": [
        {
          "internalType": "address",
          "name": "",
          "type": "address"
        }
      ],
      "stateMutability": "view",
      "type": "function"
    },
    {
      "inputs": [],
      "name": "renounceOwnership",
      "outputs": [],
      "stateMutability": "nonpayable",
      "type": "function"
    },
    {
      "inputs": [
        {
          "internalType": "address",
          "name": "from",
          "type": "address"
        },
        {
          "internalType": "address",
          "name": "to",
          "type": "address"
        },
        {
          "internalType": "uint256",
          "name": "tokenId",
          "type": "uint256"
        }
      ],
      "name": "safeTransferFrom",
      "outputs": [],
      "stateMutability": "nonpayable",
      "type": "function"
    },
    {
      "inputs": [
        {
          "internalType": "address",
          "name": "from",
          "type": "address"
        },
        {
          "internalType": "address",
          "name": "to",
          "type": "address"
        },
        {
          "internalType": "uint256",
          "name": "tokenId",
          "type": "uint256"
        },
        {
          "internalType": "bytes",
          "name": "data",
          "type": "bytes"
        }
      ],
      "name": "safeTransferFrom",
      "outputs": [],
      "stateMutability": "nonpayable",
      "type": "function"
    },
    {
      "inputs": [
        {
          "internalType": "address",
          "name": "operator",
          "type": "address"
        },
        {
          "internalType": "bool",
          "name": "approved",
          "type": "bool"
        }
      ],
      "name": "setApprovalForAll",
      "outputs": [],
      "stateMutability": "nonpayable",
      "type": "function"
    },
    {
      "inputs": [
        {
          "internalType": "bytes4",
          "name": "interfaceId",
          "type": "bytes4"
        }
      ],
      "name": "supportsInterface",
      "outputs": [
        {
          "internalType": "bool",
          "name": "",
          "type": "bool"
        }
      ],
      "stateMutability": "view",
      "type": "function"
    },
    {
      "inputs": [],
      "name": "symbol",
      "outputs": [
        {
          "internalType": "string",
          "name": "",
          "type": "string"
        }
      ],
      "stateMutability": "view",
      "type": "function"
    },
    {
      "inputs": [
        {
          "internalType": "uint256",
          "name": "tokenId",
          "type": "uint256"
        }
      ],
      "name": "tokenURI",
      "outputs": [
        {
          "internalType": "string",
          "name": "",
          "type": "string"
        }
      ],
      "stateMutability": "view",
      "type": "function"
    },
    {
      "inputs": [
        {
          "internalType": "address",
          "name": "from",
          "type": "address"
        },
        {
          "internalType": "address",
          "name": "to",
          "type": "address"
        },
        {
          "internalType": "uint256",
          "name": "tokenId",
          "type": "uint256"
        }
      ],
      "name": "transferFrom",
      "outputs": [],
      "stateMutability": "nonpayable",
      "type": "function"
    },
    {
      "inputs": [
        {
          "internalType": "address",
          "name": "newOwner",
          "type": "address"
        }
      ],
      "name": "transferOwnership",
      "outputs": [],
      "stateMutability": "nonpayable",
      "type": "function"
    },
    {
      "inputs": [
        {
          "internalType": "string",
          "name": "tokenURI",
          "type": "string"
        }
      ],
      "name": "mint",
      "outputs": [],
      "stateMutability": "nonpayable",
      "type": "function"
    },
    {
      "inputs": [
        {
          "internalType": "address",
          "name": "subaccount",
          "type": "address"
        },
        {
          "internalType": "uint64",
          "name": "deadline",
          "type": "uint64"
        },
        {
          "internalType": "bytes",
          "name": "signature",
          "type": "bytes"
        }
      ],
      "name": "addSubaccount",
      "outputs": [],
      "stateMutability": "nonpayable",
      "type": "function"
    },
    {
      "inputs": [],
      "name": "getSubaccounts",
      "outputs": [
        {
          "internalType": "address[]",
          "name": "",
          "type": "address[]"
        }
      ],
      "stateMutability": "view",
      "type": "function"
    }
  ],
  "bytecode": "0x60806040523480156200001157600080fd5b506040518060400160405280600b81526020017f6d7920726f6f6d206b65790000000000000000000000000000000000000000008152506040518060400160405280600481526020017f524f4f4d0000000000000000000000000000000000000000000000000000000081525081600090816200008f919062000412565b508060019081620000a1919062000412565b505050620000c4620000b8620000ca60201b60201c565b620000d260201b60201c565b620004f9565b600033905090565b6000600760009054906101000a900473ffffffffffffffffffffffffffffffffffffffff16905081600760006101000a81548173ffffffffffffffffffffffffffffffffffffffff021916908373ffffffffffffffffffffffffffffffffffffffff1602179055508173ffffffffffffffffffffffffffffffffffffffff168173ffffffffffffffffffffffffffffffffffffffff167f8be0079c531659141344cd1fd0a4f28419497f9722a3daafe3b4186f6b6457e060405160405180910390a35050565b600081519050919050565b7f4e487b7100000000000000000000000000000000000000000000000000000000600052604160045260246000fd5b7f4e487b7100000000000000000000000000000000000000000000000000000000600052602260045260246000fd5b600060028204905060018216806200021a57607f821691505b60208210810362000230576200022f620001d2565b5b50919050565b60008190508160005260206000209050919050565b60006020601f8301049050919050565b600082821b905092915050565b6000600883026200029a7fffffffffffffffffffffffffffffffffffffffffffffffffffffffffffffffff826200025b565b620002a686836200025b565b95508019841693508086168417925050509392505050565b6000819050919050565b6000819050919050565b6000620002f3620002ed620002e784620002be565b620002c8565b620002be565b9050919050565b6000819050919050565b6200030f83620002d2565b620003276200031e82620002fa565b84845462000268565b825550505050565b600090565b6200033e6200032f565b6200034b81848462000304565b505050565b5b8181101562000373576200036760008262000334565b60018101905062000351565b5050565b601f821115620003c2576200038c8162000236565b62000397846200024b565b81016020851015620003a7578190505b620003bf620003b6856200024b565b83018262000350565b50505b505050565b600082821c905092915050565b6000620003e760001984600802620003c7565b1980831691505092915050565b6000620004028383620003d4565b9150826002028217905092915050565b6200041d8262000198565b67ffffffffffffffff811115620004395762000438620001a3565b5b62000445825462000201565b6200045282828562000377565b600060209050601f8311600181146200048a576000841562000475578287015190505b620004818582620003f4565b865550620004f1565b601f1984166200049a8662000236565b60005b82811015620004c4578489015182556001820191506020850194506020810190506200049d565b86831015620004e45784890151620004e0601f891682620003d4565b8355505b6001600288020188555050505b505050505050565b61396780620005096000396000f3fe608060405234801561001057600080fd5b50600436106101215760003560e01c80638b7a1877116100ad578063b88d4fde11610071578063b88d4fde146102f4578063c87b56dd14610310578063d85d3d2714610340578063e985e9c51461035c578063f2fde38b1461038c57610121565b80638b7a1877146102625780638da5cb5b1461027e578063928f53a51461029c57806395d89b41146102ba578063a22cb465146102d857610121565b806323b872dd116100f457806323b872dd146101c057806342842e0e146101dc5780636352211e146101f857806370a0823114610228578063715018a61461025857610121565b806301ffc9a71461012657806306fdde0314610156578063081812fc14610174578063095ea7b3146101a4575b600080fd5b610140600480360381019061013b91906121b4565b6103a8565b60405161014d91906121fc565b60405180910390f35b61015e61048a565b60405161016b91906122a7565b60405180910390f35b61018e600480360381019061018991906122ff565b61051c565b60405161019b919061236d565b60405180910390f35b6101be60048036038101906101b991906123b4565b610562565b005b6101da60048036038101906101d591906123f4565b610679565b005b6101f660048036038101906101f191906123f4565b6106d9565b005b610212600480360381019061020d91906122ff565b6106f9565b60405161021f919061236d565b60405180910390f35b610242600480360381019061023d9190612447565b61077f565b60405161024f9190612483565b60405180910390f35b610260610836565b005b61027c60048036038101906102779190612613565b61084a565b005b6102866109f5565b604051610293919061236d565b60405180910390f35b6102a4610a1f565b6040516102b19190612740565b60405180910390f35b6102c2610aea565b6040516102cf91906122a7565b60405180910390f35b6102f260048036038101906102ed919061278e565b610b7c565b005b61030e600480360381019061030991906127ce565b610b92565b005b61032a600480360381019061032591906122ff565b610bf4565b60405161033791906122a7565b60405180910390f35b61035a600480360381019061035591906128f2565b610d06565b005b6103766004803603810190610371919061293b565b610d36565b60405161038391906121fc565b60405180910390f35b6103a660048036038101906103a19190612447565b610dca565b005b60007f80ac58cd000000000000000000000000000000000000000000000000000000007bffffffffffffffffffffffffffffffffffffffffffffffffffffffff1916827bffffffffffffffffffffffffffffffffffffffffffffffffffffffff1916148061047357507f5b5e139f000000000000000000000000000000000000000000000000000000007bffffffffffffffffffffffffffffffffffffffffffffffffffffffff1916827bffffffffffffffffffffffffffffffffffffffffffffffffffffffff1916145b80610483575061048282610e4d565b5b9050919050565b606060008054610499906129aa565b80601f01602080910402602001604051908101604052809291908181526020018280546104c5906129aa565b80156105125780601f106104e757610100808354040283529160200191610512565b820191906000526020600020905b8154815290600101906020018083116104f557829003601f168201915b5050505050905090565b600061052782610eb7565b6004600083815260200190815260200160002060009054906101000a900473ffffffffffffffffffffffffffffffffffffffff169050919050565b600061056d826106f9565b90508073ffffffffffffffffffffffffffffffffffffffff168373ffffffffffffffffffffffffffffffffffffffff16036105dd576040517f08c379a00000000000000000000000000000000000000000000000000000000081526004016105d490612a4d565b60405180910390fd5b8073ffffffffffffffffffffffffffffffffffffffff166105fc610f02565b73ffffffffffffffffffffffffffffffffffffffff16148061062b575061062a81610625610f02565b610d36565b5b61066a576040517f08c379a000000000000000000000000000000000000000000000000000000000815260040161066190612adf565b60405180910390fd5b6106748383610f0a565b505050565b61068a610684610f02565b82610fc3565b6106c9576040517f08c379a00000000000000000000000000000000000000000000000000000000081526004016106c090612b71565b60405180910390fd5b6106d4838383611058565b505050565b6106f483838360405180602001604052806000815250610b92565b505050565b60008061070583611351565b9050600073ffffffffffffffffffffffffffffffffffffffff168173ffffffffffffffffffffffffffffffffffffffff1603610776576040517f08c379a000000000000000000000000000000000000000000000000000000000815260040161076d90612bdd565b60405180910390fd5b80915050919050565b60008073ffffffffffffffffffffffffffffffffffffffff168273ffffffffffffffffffffffffffffffffffffffff16036107ef576040517f08c379a00000000000000000000000000000000000000000000000000000000081526004016107e690612c6f565b60405180910390fd5b600360008373ffffffffffffffffffffffffffffffffffffffff1673ffffffffffffffffffffffffffffffffffffffff168152602001908152602001600020549050919050565b61083e61138e565b610848600061140c565b565b6000838360405160200161085f929190612d0d565b6040516020818303038152906040528051906020012090506000610882826114d2565b905060006108908285611502565b90508573ffffffffffffffffffffffffffffffffffffffff168173ffffffffffffffffffffffffffffffffffffffff1614610900576040517f08c379a00000000000000000000000000000000000000000000000000000000081526004016108f790612d85565b60405180910390fd5b428567ffffffffffffffff16101561094d576040517f08c379a000000000000000000000000000000000000000000000000000000000815260040161094490612df1565b60405180910390fd5b600860003373ffffffffffffffffffffffffffffffffffffffff1673ffffffffffffffffffffffffffffffffffffffff168152602001908152602001600020869080600181540180825580915050600190039060005260206000200160009091909190916101000a81548173ffffffffffffffffffffffffffffffffffffffff021916908373ffffffffffffffffffffffffffffffffffffffff160217905550505050505050565b6000600760009054906101000a900473ffffffffffffffffffffffffffffffffffffffff16905090565b6060600860003373ffffffffffffffffffffffffffffffffffffffff1673ffffffffffffffffffffffffffffffffffffffff168152602001908152602001600020805480602002602001604051908101604052809291908181526020018280548015610ae057602002820191906000526020600020905b8160009054906101000a900473ffffffffffffffffffffffffffffffffffffffff1673ffffffffffffffffffffffffffffffffffffffff1681526020019060010190808311610a96575b5050505050905090565b606060018054610af9906129aa565b80601f0160208091040260200160405190810160405280929190818152602001828054610b25906129aa565b8015610b725780601f10610b4757610100808354040283529160200191610b72565b820191906000526020600020905b815481529060010190602001808311610b5557829003601f168201915b5050505050905090565b610b8e610b87610f02565b8383611529565b5050565b610ba3610b9d610f02565b83610fc3565b610be2576040517f08c379a0000000000000000000000000000000000000000000000000000000008152600401610bd990612b71565b60405180910390fd5b610bee84848484611695565b50505050565b6060610bff82610eb7565b6000600660008481526020019081526020016000208054610c1f906129aa565b80601f0160208091040260200160405190810160405280929190818152602001828054610c4b906129aa565b8015610c985780601f10610c6d57610100808354040283529160200191610c98565b820191906000526020600020905b815481529060010190602001808311610c7b57829003601f168201915b505050505090506000610ca96116f1565b90506000815103610cbe578192505050610d01565b600082511115610cf3578082604051602001610cdb929190612e4d565b60405160208183030381529060405292505050610d01565b610cfc84611708565b925050505b919050565b610d106009611770565b6000610d1c6009611786565b9050610d283382611794565b610d3281836117b2565b5050565b6000600560008473ffffffffffffffffffffffffffffffffffffffff1673ffffffffffffffffffffffffffffffffffffffff16815260200190815260200160002060008373ffffffffffffffffffffffffffffffffffffffff1673ffffffffffffffffffffffffffffffffffffffff16815260200190815260200160002060009054906101000a900460ff16905092915050565b610dd261138e565b600073ffffffffffffffffffffffffffffffffffffffff168173ffffffffffffffffffffffffffffffffffffffff1603610e41576040517f08c379a0000000000000000000000000000000000000000000000000000000008152600401610e3890612ee3565b60405180910390fd5b610e4a8161140c565b50565b60007f01ffc9a7000000000000000000000000000000000000000000000000000000007bffffffffffffffffffffffffffffffffffffffffffffffffffffffff1916827bffffffffffffffffffffffffffffffffffffffffffffffffffffffff1916149050919050565b610ec08161181f565b610eff576040517f08c379a0000000000000000000000000000000000000000000000000000000008152600401610ef690612bdd565b60405180910390fd5b50565b600033905090565b816004600083815260200190815260200160002060006101000a81548173ffffffffffffffffffffffffffffffffffffffff021916908373ffffffffffffffffffffffffffffffffffffffff160217905550808273ffffffffffffffffffffffffffffffffffffffff16610f7d836106f9565b73ffffffffffffffffffffffffffffffffffffffff167f8c5be1e5ebec7d5bd14f71427d1e84f3dd0314c0f7b2291e5b200ac8c7c3b92560405160405180910390a45050565b600080610fcf836106f9565b90508073ffffffffffffffffffffffffffffffffffffffff168473ffffffffffffffffffffffffffffffffffffffff16148061101157506110108185610d36565b5b8061104f57508373ffffffffffffffffffffffffffffffffffffffff166110378461051c565b73ffffffffffffffffffffffffffffffffffffffff16145b91505092915050565b8273ffffffffffffffffffffffffffffffffffffffff16611078826106f9565b73ffffffffffffffffffffffffffffffffffffffff16146110ce576040517f08c379a00000000000000000000000000000000000000000000000000000000081526004016110c590612f75565b60405180910390fd5b600073ffffffffffffffffffffffffffffffffffffffff168273ffffffffffffffffffffffffffffffffffffffff160361113d576040517f08c379a000000000000000000000000000000000000000000000000000000000815260040161113490613007565b60405180910390fd5b61114a8383836001611860565b8273ffffffffffffffffffffffffffffffffffffffff1661116a826106f9565b73ffffffffffffffffffffffffffffffffffffffff16146111c0576040517f08c379a00000000000000000000000000000000000000000000000000000000081526004016111b790612f75565b60405180910390fd5b6004600082815260200190815260200160002060006101000a81549073ffffffffffffffffffffffffffffffffffffffff02191690556001600360008573ffffffffffffffffffffffffffffffffffffffff1673ffffffffffffffffffffffffffffffffffffffff168152602001908152602001600020600082825403925050819055506001600360008473ffffffffffffffffffffffffffffffffffffffff1673ffffffffffffffffffffffffffffffffffffffff16815260200190815260200160002060008282540192505081905550816002600083815260200190815260200160002060006101000a81548173ffffffffffffffffffffffffffffffffffffffff021916908373ffffffffffffffffffffffffffffffffffffffff160217905550808273ffffffffffffffffffffffffffffffffffffffff168473ffffffffffffffffffffffffffffffffffffffff167fddf252ad1be2c89b69c2b068fc378daa952ba7f163c4a11628f55a4df523b3ef60405160405180910390a461134c8383836001611866565b505050565b60006002600083815260200190815260200160002060009054906101000a900473ffffffffffffffffffffffffffffffffffffffff169050919050565b611396610f02565b73ffffffffffffffffffffffffffffffffffffffff166113b46109f5565b73ffffffffffffffffffffffffffffffffffffffff161461140a576040517f08c379a000000000000000000000000000000000000000000000000000000000815260040161140190613073565b60405180910390fd5b565b6000600760009054906101000a900473ffffffffffffffffffffffffffffffffffffffff16905081600760006101000a81548173ffffffffffffffffffffffffffffffffffffffff021916908373ffffffffffffffffffffffffffffffffffffffff1602179055508173ffffffffffffffffffffffffffffffffffffffff168173ffffffffffffffffffffffffffffffffffffffff167f8be0079c531659141344cd1fd0a4f28419497f9722a3daafe3b4186f6b6457e060405160405180910390a35050565b6000816040516020016114e5919061310a565b604051602081830303815290604052805190602001209050919050565b6000806000611511858561186c565b9150915061151e816118bd565b819250505092915050565b8173ffffffffffffffffffffffffffffffffffffffff168373ffffffffffffffffffffffffffffffffffffffff1603611597576040517f08c379a000000000000000000000000000000000000000000000000000000000815260040161158e9061317c565b60405180910390fd5b80600560008573ffffffffffffffffffffffffffffffffffffffff1673ffffffffffffffffffffffffffffffffffffffff16815260200190815260200160002060008473ffffffffffffffffffffffffffffffffffffffff1673ffffffffffffffffffffffffffffffffffffffff16815260200190815260200160002060006101000a81548160ff0219169083151502179055508173ffffffffffffffffffffffffffffffffffffffff168373ffffffffffffffffffffffffffffffffffffffff167f17307eab39ab6107e8899845ad3d59bd9653f200f220920489ca2b5937696c318360405161168891906121fc565b60405180910390a3505050565b6116a0848484611058565b6116ac84848484611a23565b6116eb576040517f08c379a00000000000000000000000000000000000000000000000000000000081526004016116e29061320e565b60405180910390fd5b50505050565b606060405180602001604052806000815250905090565b606061171382610eb7565b600061171d6116f1565b9050600081511161173d5760405180602001604052806000815250611768565b8061174784611baa565b604051602001611758929190612e4d565b6040516020818303038152906040525b915050919050565b6001816000016000828254019250508190555050565b600081600001549050919050565b6117ae828260405180602001604052806000815250611c78565b5050565b6117bb8261181f565b6117fa576040517f08c379a00000000000000000000000000000000000000000000000000000000081526004016117f1906132a0565b60405180910390fd5b8060066000848152602001908152602001600020908161181a919061346c565b505050565b60008073ffffffffffffffffffffffffffffffffffffffff1661184183611351565b73ffffffffffffffffffffffffffffffffffffffff1614159050919050565b50505050565b50505050565b60008060418351036118ad5760008060006020860151925060408601519150606086015160001a90506118a187828585611cd3565b945094505050506118b6565b60006002915091505b9250929050565b600060048111156118d1576118d061353e565b5b8160048111156118e4576118e361353e565b5b0315611a2057600160048111156118fe576118fd61353e565b5b8160048111156119115761191061353e565b5b03611951576040517f08c379a0000000000000000000000000000000000000000000000000000000008152600401611948906135b9565b60405180910390fd5b600260048111156119655761196461353e565b5b8160048111156119785761197761353e565b5b036119b8576040517f08c379a00000000000000000000000000000000000000000000000000000000081526004016119af90613625565b60405180910390fd5b600360048111156119cc576119cb61353e565b5b8160048111156119df576119de61353e565b5b03611a1f576040517f08c379a0000000000000000000000000000000000000000000000000000000008152600401611a16906136b7565b60405180910390fd5b5b50565b6000611a448473ffffffffffffffffffffffffffffffffffffffff16611db5565b15611b9d578373ffffffffffffffffffffffffffffffffffffffff1663150b7a02611a6d610f02565b8786866040518563ffffffff1660e01b8152600401611a8f949392919061372c565b6020604051808303816000875af1925050508015611acb57506040513d601f19601f82011682018060405250810190611ac8919061378d565b60015b611b4d573d8060008114611afb576040519150601f19603f3d011682016040523d82523d6000602084013e611b00565b606091505b506000815103611b45576040517f08c379a0000000000000000000000000000000000000000000000000000000008152600401611b3c9061320e565b60405180910390fd5b805181602001fd5b63150b7a0260e01b7bffffffffffffffffffffffffffffffffffffffffffffffffffffffff1916817bffffffffffffffffffffffffffffffffffffffffffffffffffffffff191614915050611ba2565b600190505b949350505050565b606060006001611bb984611dd8565b01905060008167ffffffffffffffff811115611bd857611bd76124e8565b5b6040519080825280601f01601f191660200182016040528015611c0a5781602001600182028036833780820191505090505b509050600082602001820190505b600115611c6d578080600190039150507f3031323334353637383961626364656600000000000000000000000000000000600a86061a8153600a8581611c6157611c606137ba565b5b04945060008503611c18575b819350505050919050565b611c828383611f2b565b611c8f6000848484611a23565b611cce576040517f08c379a0000000000000000000000000000000000000000000000000000000008152600401611cc59061320e565b60405180910390fd5b505050565b6000807f7fffffffffffffffffffffffffffffff5d576e7357a4501ddfe92f46681b20a08360001c1115611d0e576000600391509150611dac565b600060018787878760405160008152602001604052604051611d339493929190613814565b6020604051602081039080840390855afa158015611d55573d6000803e3d6000fd5b505050602060405103519050600073ffffffffffffffffffffffffffffffffffffffff168173ffffffffffffffffffffffffffffffffffffffff1603611da357600060019250925050611dac565b80600092509250505b94509492505050565b6000808273ffffffffffffffffffffffffffffffffffffffff163b119050919050565b600080600090507a184f03e93ff9f4daa797ed6e38ed64bf6a1f0100000000000000008310611e36577a184f03e93ff9f4daa797ed6e38ed64bf6a1f0100000000000000008381611e2c57611e2b6137ba565b5b0492506040810190505b6d04ee2d6d415b85acef81000000008310611e73576d04ee2d6d415b85acef81000000008381611e6957611e686137ba565b5b0492506020810190505b662386f26fc100008310611ea257662386f26fc100008381611e9857611e976137ba565b5b0492506010810190505b6305f5e1008310611ecb576305f5e1008381611ec157611ec06137ba565b5b0492506008810190505b6127108310611ef0576127108381611ee657611ee56137ba565b5b0492506004810190505b60648310611f135760648381611f0957611f086137ba565b5b0492506002810190505b600a8310611f22576001810190505b80915050919050565b600073ffffffffffffffffffffffffffffffffffffffff168273ffffffffffffffffffffffffffffffffffffffff1603611f9a576040517f08c379a0000000000000000000000000000000000000000000000000000000008152600401611f91906138a5565b60405180910390fd5b611fa38161181f565b15611fe3576040517f08c379a0000000000000000000000000000000000000000000000000000000008152600401611fda90613911565b60405180910390fd5b611ff1600083836001611860565b611ffa8161181f565b1561203a576040517f08c379a000000000000000000000000000000000000000000000000000000000815260040161203190613911565b60405180910390fd5b6001600360008473ffffffffffffffffffffffffffffffffffffffff1673ffffffffffffffffffffffffffffffffffffffff16815260200190815260200160002060008282540192505081905550816002600083815260200190815260200160002060006101000a81548173ffffffffffffffffffffffffffffffffffffffff021916908373ffffffffffffffffffffffffffffffffffffffff160217905550808273ffffffffffffffffffffffffffffffffffffffff16600073ffffffffffffffffffffffffffffffffffffffff167fddf252ad1be2c89b69c2b068fc378daa952ba7f163c4a11628f55a4df523b3ef60405160405180910390a4612144600083836001611866565b5050565b6000604051905090565b600080fd5b600080fd5b60007fffffffff0000000000000000000000000000000000000000000000000000000082169050919050565b6121918161215c565b811461219c57600080fd5b50565b6000813590506121ae81612188565b92915050565b6000602082840312156121ca576121c9612152565b5b60006121d88482850161219f565b91505092915050565b60008115159050919050565b6121f6816121e1565b82525050565b600060208201905061221160008301846121ed565b92915050565b600081519050919050565b600082825260208201905092915050565b60005b83811015612251578082015181840152602081019050612236565b60008484015250505050565b6000601f19601f8301169050919050565b600061227982612217565b6122838185612222565b9350612293818560208601612233565b61229c8161225d565b840191505092915050565b600060208201905081810360008301526122c1818461226e565b905092915050565b6000819050919050565b6122dc816122c9565b81146122e757600080fd5b50565b6000813590506122f9816122d3565b92915050565b60006020828403121561231557612314612152565b5b6000612323848285016122ea565b91505092915050565b600073ffffffffffffffffffffffffffffffffffffffff82169050919050565b60006123578261232c565b9050919050565b6123678161234c565b82525050565b6000602082019050612382600083018461235e565b92915050565b6123918161234c565b811461239c57600080fd5b50565b6000813590506123ae81612388565b92915050565b600080604083850312156123cb576123ca612152565b5b60006123d98582860161239f565b92505060206123ea858286016122ea565b9150509250929050565b60008060006060848603121561240d5761240c612152565b5b600061241b8682870161239f565b935050602061242c8682870161239f565b925050604061243d868287016122ea565b9150509250925092565b60006020828403121561245d5761245c612152565b5b600061246b8482850161239f565b91505092915050565b61247d816122c9565b82525050565b60006020820190506124986000830184612474565b92915050565b600067ffffffffffffffff82169050919050565b6124bb8161249e565b81146124c657600080fd5b50565b6000813590506124d8816124b2565b92915050565b600080fd5b600080fd5b7f4e487b7100000000000000000000000000000000000000000000000000000000600052604160045260246000fd5b6125208261225d565b810181811067ffffffffffffffff8211171561253f5761253e6124e8565b5b80604052505050565b6000612552612148565b905061255e8282612517565b919050565b600067ffffffffffffffff82111561257e5761257d6124e8565b5b6125878261225d565b9050602081019050919050565b82818337600083830152505050565b60006125b66125b184612563565b612548565b9050828152602081018484840111156125d2576125d16124e3565b5b6125dd848285612594565b509392505050565b600082601f8301126125fa576125f96124de565b5b813561260a8482602086016125a3565b91505092915050565b60008060006060848603121561262c5761262b612152565b5b600061263a8682870161239f565b935050602061264b868287016124c9565b925050604084013567ffffffffffffffff81111561266c5761266b612157565b5b612678868287016125e5565b9150509250925092565b600081519050919050565b600082825260208201905092915050565b6000819050602082019050919050565b6126b78161234c565b82525050565b60006126c983836126ae565b60208301905092915050565b6000602082019050919050565b60006126ed82612682565b6126f7818561268d565b93506127028361269e565b8060005b8381101561273357815161271a88826126bd565b9750612725836126d5565b925050600181019050612706565b5085935050505092915050565b6000602082019050818103600083015261275a81846126e2565b905092915050565b61276b816121e1565b811461277657600080fd5b50565b60008135905061278881612762565b92915050565b600080604083850312156127a5576127a4612152565b5b60006127b38582860161239f565b92505060206127c485828601612779565b9150509250929050565b600080600080608085870312156127e8576127e7612152565b5b60006127f68782880161239f565b94505060206128078782880161239f565b9350506040612818878288016122ea565b925050606085013567ffffffffffffffff81111561283957612838612157565b5b612845878288016125e5565b91505092959194509250565b600067ffffffffffffffff82111561286c5761286b6124e8565b5b6128758261225d565b9050602081019050919050565b600061289561289084612851565b612548565b9050828152602081018484840111156128b1576128b06124e3565b5b6128bc848285612594565b509392505050565b600082601f8301126128d9576128d86124de565b5b81356128e9848260208601612882565b91505092915050565b60006020828403121561290857612907612152565b5b600082013567ffffffffffffffff81111561292657612925612157565b5b612932848285016128c4565b91505092915050565b6000806040838503121561295257612951612152565b5b60006129608582860161239f565b92505060206129718582860161239f565b9150509250929050565b7f4e487b7100000000000000000000000000000000000000000000000000000000600052602260045260246000fd5b600060028204905060018216806129c257607f821691505b6020821081036129d5576129d461297b565b5b50919050565b7f4552433732313a20617070726f76616c20746f2063757272656e74206f776e6560008201527f7200000000000000000000000000000000000000000000000000000000000000602082015250565b6000612a37602183612222565b9150612a42826129db565b604082019050919050565b60006020820190508181036000830152612a6681612a2a565b9050919050565b7f4552433732313a20617070726f76652063616c6c6572206973206e6f7420746f60008201527f6b656e206f776e6572206f7220617070726f76656420666f7220616c6c000000602082015250565b6000612ac9603d83612222565b9150612ad482612a6d565b604082019050919050565b60006020820190508181036000830152612af881612abc565b9050919050565b7f4552433732313a2063616c6c6572206973206e6f7420746f6b656e206f776e6560008201527f72206f7220617070726f76656400000000000000000000000000000000000000602082015250565b6000612b5b602d83612222565b9150612b6682612aff565b604082019050919050565b60006020820190508181036000830152612b8a81612b4e565b9050919050565b7f4552433732313a20696e76616c696420746f6b656e2049440000000000000000600082015250565b6000612bc7601883612222565b9150612bd282612b91565b602082019050919050565b60006020820190508181036000830152612bf681612bba565b9050919050565b7f4552433732313a2061646472657373207a65726f206973206e6f74206120766160008201527f6c6964206f776e65720000000000000000000000000000000000000000000000602082015250565b6000612c59602983612222565b9150612c6482612bfd565b604082019050919050565b60006020820190508181036000830152612c8881612c4c565b9050919050565b60008160601b9050919050565b6000612ca782612c8f565b9050919050565b6000612cb982612c9c565b9050919050565b612cd1612ccc8261234c565b612cae565b82525050565b60008160c01b9050919050565b6000612cef82612cd7565b9050919050565b612d07612d028261249e565b612ce4565b82525050565b6000612d198285612cc0565b601482019150612d298284612cf6565b6008820191508190509392505050565b7f496e76616c6964207369676e6174757265000000000000000000000000000000600082015250565b6000612d6f601183612222565b9150612d7a82612d39565b602082019050919050565b60006020820190508181036000830152612d9e81612d62565b9050919050565b7f5369676e61747572652065787069726564000000000000000000000000000000600082015250565b6000612ddb601183612222565b9150612de682612da5565b602082019050919050565b60006020820190508181036000830152612e0a81612dce565b9050919050565b600081905092915050565b6000612e2782612217565b612e318185612e11565b9350612e41818560208601612233565b80840191505092915050565b6000612e598285612e1c565b9150612e658284612e1c565b91508190509392505050565b7f4f776e61626c653a206e6577206f776e657220697320746865207a65726f206160008201527f6464726573730000000000000000000000000000000000000000000000000000602082015250565b6000612ecd602683612222565b9150612ed882612e71565b604082019050919050565b60006020820190508181036000830152612efc81612ec0565b9050919050565b7f4552433732313a207472616e736665722066726f6d20696e636f72726563742060008201527f6f776e6572000000000000000000000000000000000000000000000000000000602082015250565b6000612f5f602583612222565b9150612f6a82612f03565b604082019050919050565b60006020820190508181036000830152612f8e81612f52565b9050919050565b7f4552433732313a207472616e7366657220746f20746865207a65726f2061646460008201527f7265737300000000000000000000000000000000000000000000000000000000602082015250565b6000612ff1602483612222565b9150612ffc82612f95565b604082019050919050565b6000602082019050818103600083015261302081612fe4565b9050919050565b7f4f776e61626c653a2063616c6c6572206973206e6f7420746865206f776e6572600082015250565b600061305d602083612222565b915061306882613027565b602082019050919050565b6000602082019050818103600083015261308c81613050565b9050919050565b7f19457468657265756d205369676e6564204d6573736167653a0a333200000000600082015250565b60006130c9601c83612e11565b91506130d482613093565b601c82019050919050565b6000819050919050565b6000819050919050565b6131046130ff826130df565b6130e9565b82525050565b6000613115826130bc565b915061312182846130f3565b60208201915081905092915050565b7f4552433732313a20617070726f766520746f2063616c6c657200000000000000600082015250565b6000613166601983612222565b915061317182613130565b602082019050919050565b6000602082019050818103600083015261319581613159565b9050919050565b7f4552433732313a207472616e7366657220746f206e6f6e20455243373231526560008201527f63656976657220696d706c656d656e7465720000000000000000000000000000602082015250565b60006131f8603283612222565b91506132038261319c565b604082019050919050565b60006020820190508181036000830152613227816131eb565b9050919050565b7f45524337323155524953746f726167653a2055524920736574206f66206e6f6e60008201527f6578697374656e7420746f6b656e000000000000000000000000000000000000602082015250565b600061328a602e83612222565b91506132958261322e565b604082019050919050565b600060208201905081810360008301526132b98161327d565b9050919050565b60008190508160005260206000209050919050565b60006020601f8301049050919050565b600082821b905092915050565b6000600883026133227fffffffffffffffffffffffffffffffffffffffffffffffffffffffffffffffff826132e5565b61332c86836132e5565b95508019841693508086168417925050509392505050565b6000819050919050565b600061336961336461335f846122c9565b613344565b6122c9565b9050919050565b6000819050919050565b6133838361334e565b61339761338f82613370565b8484546132f2565b825550505050565b600090565b6133ac61339f565b6133b781848461337a565b505050565b5b818110156133db576133d06000826133a4565b6001810190506133bd565b5050565b601f821115613420576133f1816132c0565b6133fa846132d5565b81016020851015613409578190505b61341d613415856132d5565b8301826133bc565b50505b505050565b600082821c905092915050565b600061344360001984600802613425565b1980831691505092915050565b600061345c8383613432565b9150826002028217905092915050565b61347582612217565b67ffffffffffffffff81111561348e5761348d6124e8565b5b61349882546129aa565b6134a38282856133df565b600060209050601f8311600181146134d657600084156134c4578287015190505b6134ce8582613450565b865550613536565b601f1984166134e4866132c0565b60005b8281101561350c578489015182556001820191506020850194506020810190506134e7565b868310156135295784890151613525601f891682613432565b8355505b6001600288020188555050505b505050505050565b7f4e487b7100000000000000000000000000000000000000000000000000000000600052602160045260246000fd5b7f45434453413a20696e76616c6964207369676e61747572650000000000000000600082015250565b60006135a3601883612222565b91506135ae8261356d565b602082019050919050565b600060208201905081810360008301526135d281613596565b9050919050565b7f45434453413a20696e76616c6964207369676e6174757265206c656e67746800600082015250565b600061360f601f83612222565b915061361a826135d9565b602082019050919050565b6000602082019050818103600083015261363e81613602565b9050919050565b7f45434453413a20696e76616c6964207369676e6174757265202773272076616c60008201527f7565000000000000000000000000000000000000000000000000000000000000602082015250565b60006136a1602283612222565b91506136ac82613645565b604082019050919050565b600060208201905081810360008301526136d081613694565b9050919050565b600081519050919050565b600082825260208201905092915050565b60006136fe826136d7565b61370881856136e2565b9350613718818560208601612233565b6137218161225d565b840191505092915050565b6000608082019050613741600083018761235e565b61374e602083018661235e565b61375b6040830185612474565b818103606083015261376d81846136f3565b905095945050505050565b60008151905061378781612188565b92915050565b6000602082840312156137a3576137a2612152565b5b60006137b184828501613778565b91505092915050565b7f4e487b7100000000000000000000000000000000000000000000000000000000600052601260045260246000fd5b6137f2816130df565b82525050565b600060ff82169050919050565b61380e816137f8565b82525050565b600060808201905061382960008301876137e9565b6138366020830186613805565b61384360408301856137e9565b61385060608301846137e9565b95945050505050565b7f4552433732313a206d696e7420746f20746865207a65726f2061646472657373600082015250565b600061388f602083612222565b915061389a82613859565b602082019050919050565b600060208201905081810360008301526138be81613882565b9050919050565b7f4552433732313a20746f6b656e20616c7265616479206d696e74656400000000600082015250565b60006138fb601c83612222565b9150613906826138c5565b602082019050919050565b6000602082019050818103600083015261392a816138ee565b905091905056fea26469706673582212204f6d0cb26135262d17a2873815124989c1fb62e805549bc705fbfe7963a578e064736f6c63430008120033",
  "immutableReferences": {},
  "source": "// SPDX-License-Identifier: UNLICENSED\npragma solidity ^0.8.9;\n\nimport \"@openzeppelin/contracts/token/ERC721/extensions/ERC721URIStorage.sol\";\nimport \"@openzeppelin/contracts/token/ERC721/ERC721.sol\";\nimport \"@openzeppelin/contracts/utils/cryptography/ECDSA.sol\";\nimport \"@openzeppelin/contracts/utils/Counters.sol\";\nimport \"@openzeppelin/contracts/access/Ownable.sol\";\n\ncontract DashboardMinter is ERC721URIStorage, Ownable {\n    // Map user address to array of subaccount addresses\n    mapping(address => address[]) private subaccounts;\n\n    using Counters for Counters.Counter;\n    Counters.Counter private _tokenIds;\n\n    constructor() ERC721(\"my room key\", \"ROOM\") {}\n\n    function mint(string memory tokenURI) external {\n        _tokenIds.increment();\n        uint256 newItemId = _tokenIds.current();\n        _safeMint(msg.sender, newItemId);\n        _setTokenURI(newItemId, tokenURI);\n    }\n\n    // TODO: Delete subaccounts on burn or transfer \n\n    // Verify signature of subaccount and add to subaccounts array\n    function addSubaccount(address subaccount, uint64 deadline, bytes memory signature) external {\n        bytes32 message = keccak256(abi.encodePacked(subaccount, deadline));\n        bytes32 messageHash = ECDSA.toEthSignedMessageHash(message);\n        address signer = ECDSA.recover(messageHash, signature);\n        require(signer == subaccount, \"Invalid signature\");\n        require(deadline >= block.timestamp, \"Signature expired\");\n        subaccounts[msg.sender].push(subaccount);\n    }\n\n    function getSubaccounts() external view returns (address[] memory) {\n        return subaccounts[msg.sender];\n    }\n}",
  "sourcePath": "/Users/joshuasteele/source/web3getter/contracts/shareables/contracts/DashboardMinter.sol",
  "compiler": {
    "name": "solc",
    "version": "0.8.18+commit.87f61d96.Emscripten.clang"
  },
  "schemaVersion": "3.4.13",
  "updatedAt": "2023-03-05T07:28:19.230Z",
  "devdoc": {
    "events": {
      "Approval(address,address,uint256)": {
        "details": "Emitted when `owner` enables `approved` to manage the `tokenId` token."
      },
      "ApprovalForAll(address,address,bool)": {
        "details": "Emitted when `owner` enables or disables (`approved`) `operator` to manage all of its assets."
      },
      "Transfer(address,address,uint256)": {
        "details": "Emitted when `tokenId` token is transferred from `from` to `to`."
      }
    },
    "kind": "dev",
    "methods": {
      "approve(address,uint256)": {
        "details": "See {IERC721-approve}."
      },
      "balanceOf(address)": {
        "details": "See {IERC721-balanceOf}."
      },
      "getApproved(uint256)": {
        "details": "See {IERC721-getApproved}."
      },
      "isApprovedForAll(address,address)": {
        "details": "See {IERC721-isApprovedForAll}."
      },
      "name()": {
        "details": "See {IERC721Metadata-name}."
      },
      "owner()": {
        "details": "Returns the address of the current owner."
      },
      "ownerOf(uint256)": {
        "details": "See {IERC721-ownerOf}."
      },
      "renounceOwnership()": {
        "details": "Leaves the contract without owner. It will not be possible to call `onlyOwner` functions anymore. Can only be called by the current owner. NOTE: Renouncing ownership will leave the contract without an owner, thereby removing any functionality that is only available to the owner."
      },
      "safeTransferFrom(address,address,uint256)": {
        "details": "See {IERC721-safeTransferFrom}."
      },
      "safeTransferFrom(address,address,uint256,bytes)": {
        "details": "See {IERC721-safeTransferFrom}."
      },
      "setApprovalForAll(address,bool)": {
        "details": "See {IERC721-setApprovalForAll}."
      },
      "supportsInterface(bytes4)": {
        "details": "See {IERC165-supportsInterface}."
      },
      "symbol()": {
        "details": "See {IERC721Metadata-symbol}."
      },
      "tokenURI(uint256)": {
        "details": "See {IERC721Metadata-tokenURI}."
      },
      "transferFrom(address,address,uint256)": {
        "details": "See {IERC721-transferFrom}."
      },
      "transferOwnership(address)": {
        "details": "Transfers ownership of the contract to a new account (`newOwner`). Can only be called by the current owner."
      }
    },
    "version": 1
  },
  "userdoc": {
    "kind": "user",
    "methods": {},
    "version": 1
  }
}